{
  "address": "0x8B70Af97Ce8302595C3e3C1b02060503B9786466",
  "abi": [
    {
      "inputs": [
        {
          "internalType": "address",
          "name": "certFactory",
          "type": "address"
        }
      ],
      "stateMutability": "nonpayable",
      "type": "constructor"
    },
    {
      "inputs": [],
      "name": "Admin",
      "outputs": [
        {
          "internalType": "address",
          "name": "",
          "type": "address"
        }
      ],
      "stateMutability": "view",
      "type": "function"
    },
    {
      "inputs": [
        {
          "internalType": "uint256",
          "name": "",
          "type": "uint256"
        }
      ],
      "name": "Organisations",
      "outputs": [
        {
          "internalType": "address",
          "name": "",
          "type": "address"
        }
      ],
      "stateMutability": "view",
      "type": "function"
    },
    {
      "inputs": [
        {
          "internalType": "string",
          "name": "_organisation",
          "type": "string"
        },
        {
          "internalType": "string",
          "name": "_cohort",
          "type": "string"
        },
        {
          "internalType": "string",
          "name": "_uri",
          "type": "string"
        },
        {
          "internalType": "string",
          "name": "_adminName",
          "type": "string"
        }
      ],
      "name": "createorganisation",
      "outputs": [
        {
          "internalType": "address",
          "name": "eduOrganisation",
          "type": "address"
        },
        {
          "internalType": "address",
          "name": "Nft",
          "type": "address"
        },
        {
          "internalType": "address",
          "name": "mentorsSpok",
          "type": "address"
        },
        {
          "internalType": "address",
          "name": "certificate",
          "type": "address"
        }
      ],
      "stateMutability": "nonpayable",
      "type": "function"
    },
    {
      "inputs": [],
      "name": "getOrganizations",
      "outputs": [
        {
          "internalType": "address[]",
          "name": "",
          "type": "address[]"
        }
      ],
      "stateMutability": "view",
      "type": "function"
    },
    {
      "inputs": [
        {
          "internalType": "address",
          "name": "_userAddress",
          "type": "address"
        }
      ],
      "name": "getUserOrganisatons",
      "outputs": [
        {
          "internalType": "address[]",
          "name": "",
          "type": "address[]"
        }
      ],
      "stateMutability": "view",
      "type": "function"
    },
    {
      "inputs": [
        {
          "internalType": "address",
          "name": "",
          "type": "address"
        },
        {
          "internalType": "uint256",
          "name": "",
          "type": "uint256"
        }
      ],
      "name": "memberOrganisations",
      "outputs": [
        {
          "internalType": "address",
          "name": "",
          "type": "address"
        }
      ],
      "stateMutability": "view",
      "type": "function"
    },
    {
      "inputs": [
        {
          "components": [
            {
              "internalType": "address",
              "name": "_address",
              "type": "address"
            },
            {
              "internalType": "string",
              "name": "_name",
              "type": "string"
            }
          ],
          "internalType": "struct individual[]",
          "name": "_individual",
          "type": "tuple[]"
        }
      ],
      "name": "register",
      "outputs": [],
      "stateMutability": "nonpayable",
      "type": "function"
    },
    {
      "inputs": [
        {
          "internalType": "address[]",
          "name": "_individual",
          "type": "address[]"
        }
      ],
      "name": "revoke",
      "outputs": [],
      "stateMutability": "nonpayable",
      "type": "function"
    },
    {
      "inputs": [
        {
          "internalType": "address",
          "name": "",
          "type": "address"
        },
        {
          "internalType": "address",
          "name": "",
          "type": "address"
        }
      ],
      "name": "studentOrganisationIndex",
      "outputs": [
        {
          "internalType": "uint256",
          "name": "",
          "type": "uint256"
        }
      ],
      "stateMutability": "view",
      "type": "function"
    },
    {
      "inputs": [],
      "name": "totalUsers",
      "outputs": [
        {
          "internalType": "uint256",
          "name": "",
          "type": "uint256"
        }
      ],
      "stateMutability": "view",
      "type": "function"
    },
    {
      "inputs": [
        {
          "internalType": "address",
          "name": "",
          "type": "address"
        }
      ],
      "name": "uniqueStudent",
      "outputs": [
        {
          "internalType": "bool",
          "name": "",
          "type": "bool"
        }
      ],
      "stateMutability": "view",
      "type": "function"
    },
    {
      "inputs": [
        {
          "internalType": "address",
          "name": "",
          "type": "address"
        }
      ],
      "name": "validOrganisation",
      "outputs": [
        {
          "internalType": "bool",
          "name": "",
          "type": "bool"
        }
      ],
      "stateMutability": "view",
      "type": "function"
    }
  ],
  "transactionHash": "0x8988556f2a98fae457e5a3901879126eebf77c60425c18e52451c738c8f73f70",
  "args": [
    "0xEb8957dc1Df6c6d11E58F8909CAb5D7DccED99d4"
  ],
  "numDeployments": 1,
  "solcInputHash": "8a984a44693cf5dfc21352077c0f06b2",
  "bytecode": "0x608060405234801561001057600080fd5b5060405161549738038061549783398101604081905261002f91610062565b60008054336001600160a01b031991821617909155600280549091166001600160a01b0392909216919091179055610092565b60006020828403121561007457600080fd5b81516001600160a01b038116811461008b57600080fd5b9392505050565b6153f6806100a16000396000f3fe60806040523480156200001157600080fd5b5060043610620000c35760003560e01c8063ab6d2450116200007a578063ab6d245014620001d2578063bf840b7d1462000209578063bff1f9e1146200022f578063c88a2d6a1462000239578063d45f05311462000250578063ff1b636d146200026757600080fd5b806305f203d914620000c85780631495d75b14620000e15780633b49aaa714620001105780637ba55bbd146200015b5780639754a3a81462000198578063aa288c3b14620001a2575b600080fd5b620000df620000d936600462000997565b6200027b565b005b620000f8620000f2366004620009f6565b62000439565b60405162000107919062000a1d565b60405180910390f35b620001276200012136600462000b17565b620004b1565b604080516001600160a01b039586168152938516602085015291841691830191909152909116606082015260800162000107565b620001896200016c36600462000bd1565b600560209081526000928352604080842090915290825290205481565b60405190815260200162000107565b620000f86200070b565b620001b9620001b336600462000c0f565b6200076f565b6040516001600160a01b03909116815260200162000107565b620001f8620001e3366004620009f6565b60076020526000908152604090205460ff1681565b604051901515815260200162000107565b620001f86200021a366004620009f6565b60046020526000908152604090205460ff1681565b6200018960085481565b620000df6200024a36600462000997565b6200079a565b620001b96200026136600462000c29565b62000901565b600054620001b9906001600160a01b031681565b3360009081526004602052604090205460ff161515600114620002de5760405162461bcd60e51b81526020600482015260166024820152753ab730baba3437b934bd32b21027b832b930ba34b7b760511b60448201526064015b60405180910390fd5b8060005b818110156200043357600084848381811062000302576200030262000c58565b9050602002016020810190620003199190620009f6565b6001600160a01b03811660008181526005602090815260408083203384528252808320549383526006909152902080549293509091906200035c60018362000c84565b815481106200036f576200036f62000c58565b60009182526020808320909101546001600160a01b03868116845260069092526040909220805491909216919084908110620003af57620003af62000c58565b600091825260208083209190910180546001600160a01b0319166001600160a01b039485161790559185168152600690915260409020805480620003f757620003f762000ca0565b600082815260209020810160001990810180546001600160a01b0319169055019055508291506200042a90508162000cb6565b915050620002e2565b50505050565b6001600160a01b038116600090815260066020908152604091829020805483518184028101840190945280845260609392830182828015620004a557602002820191906000526020600020905b81546001600160a01b0316815260019091019060200180831162000486575b50505050509050919050565b600180546001600160a01b0319163390811790915560405160009182918291829182918a918a919089908b90620004e8906200093a565b620004f895949392919062000d1a565b604051809103906000f08015801562000515573d6000803e3d6000fd5b5090506003819080600181540180825580915050600190039060005260206000200160009091909190916101000a8154816001600160a01b0302191690836001600160a01b03160217905550600160046000836001600160a01b03166001600160a01b0316815260200190815260200160002060006101000a81548160ff0219169083151502179055506000806000600260009054906101000a90046001600160a01b03166001600160a01b031663310e5a7c8d8d8d886040518563ffffffff1660e01b8152600401620005ed949392919062000d8a565b6060604051808303816000875af11580156200060d573d6000803e3d6000fd5b505050506040513d601f19601f8201168201806040525081019062000633919062000de3565b60405163c0c53b8b60e01b81526001600160a01b0380841660048301528083166024830152808516604483015293965091945092509085169063c0c53b8b90606401600060405180830381600087803b1580156200069057600080fd5b505af1158015620006a5573d6000803e3d6000fd5b50503360009081526006602081815260408084208054600584528286206001600160a01b038d16808852908552928620819055938352600184018155845292200180546001600160a01b031916909117905550939c919b50995090975095505050505050565b606060038054806020026020016040519081016040528092919081815260200182805480156200076557602002820191906000526020600020905b81546001600160a01b0316815260019091019060200180831162000746575b5050505050905090565b600381815481106200078057600080fd5b6000918252602090912001546001600160a01b0316905081565b3360009081526004602052604090205460ff161515600114620007f95760405162461bcd60e51b81526020600482015260166024820152753ab730baba3437b934bd32b21027b832b930ba34b7b760511b6044820152606401620002d5565b8060005b81811015620004335760008484838181106200081d576200081d62000c58565b905060200281019062000831919062000e37565b62000841906020810190620009f6565b6001600160a01b038116600081815260066020908152604080832080546005845282852033808752908552838620829055600182018355918552838520810180546001600160a01b0319169092179091559383526007909152812054929350909160ff1615159003620008e95760088054906000620008c08362000cb6565b90915550506001600160a01b0382166000908152600760205260409020805460ff191660011790555b50508080620008f89062000cb6565b915050620007fd565b600660205281600052604060002081815481106200091e57600080fd5b6000918252602090912001546001600160a01b03169150829050565b6145688062000e5983390190565b60008083601f8401126200095b57600080fd5b50813567ffffffffffffffff8111156200097457600080fd5b6020830191508360208260051b85010111156200099057600080fd5b9250929050565b60008060208385031215620009ab57600080fd5b823567ffffffffffffffff811115620009c357600080fd5b620009d18582860162000948565b90969095509350505050565b6001600160a01b0381168114620009f357600080fd5b50565b60006020828403121562000a0957600080fd5b813562000a1681620009dd565b9392505050565b6020808252825182820181905260009190848201906040850190845b8181101562000a605783516001600160a01b03168352928401929184019160010162000a39565b50909695505050505050565b634e487b7160e01b600052604160045260246000fd5b600082601f83011262000a9457600080fd5b813567ffffffffffffffff8082111562000ab25762000ab262000a6c565b604051601f8301601f19908116603f0116810190828211818310171562000add5762000add62000a6c565b8160405283815286602085880101111562000af757600080fd5b836020870160208301376000602085830101528094505050505092915050565b6000806000806080858703121562000b2e57600080fd5b843567ffffffffffffffff8082111562000b4757600080fd5b62000b558883890162000a82565b9550602087013591508082111562000b6c57600080fd5b62000b7a8883890162000a82565b9450604087013591508082111562000b9157600080fd5b62000b9f8883890162000a82565b9350606087013591508082111562000bb657600080fd5b5062000bc58782880162000a82565b91505092959194509250565b6000806040838503121562000be557600080fd5b823562000bf281620009dd565b9150602083013562000c0481620009dd565b809150509250929050565b60006020828403121562000c2257600080fd5b5035919050565b6000806040838503121562000c3d57600080fd5b823562000c4a81620009dd565b946020939093013593505050565b634e487b7160e01b600052603260045260246000fd5b634e487b7160e01b600052601160045260246000fd5b8181038181111562000c9a5762000c9a62000c6e565b92915050565b634e487b7160e01b600052603160045260246000fd5b60006001820162000ccb5762000ccb62000c6e565b5060010190565b6000815180845260005b8181101562000cfa5760208185018101518683018201520162000cdc565b506000602082860101526020601f19601f83011685010191505092915050565b60a08152600062000d2f60a083018862000cd2565b828103602084015262000d43818862000cd2565b6001600160a01b03871660408501528381036060850152905062000d68818662000cd2565b9050828103608084015262000d7e818562000cd2565b98975050505050505050565b60808152600062000d9f608083018762000cd2565b828103602084015262000db3818762000cd2565b9050828103604084015262000dc9818662000cd2565b91505060018060a01b038316606083015295945050505050565b60008060006060848603121562000df957600080fd5b835162000e0681620009dd565b602085015190935062000e1981620009dd565b604085015190925062000e2c81620009dd565b809150509250925092565b60008235603e1983360301811262000e4e57600080fd5b919091019291505056fe60806040526007805460ff191660011790553480156200001e57600080fd5b5060405162004568380380620045688339810160408190526200004191620001fe565b601780546001600160a01b0319166001600160a01b03851617905560006200006a868262000368565b50600162000079858262000368565b5060038054336001600160a01b0319918216179091556018805482166001600160a01b038616908117909155601980546000838152601a6020908152604080832084905560018481019095557f944998273e477b495144fb8794c914197f3ccb46be2900f4698fd0ef743c96959093018054871686179055601c8152828220805460ff191685179055601d90522080549093169091178255016200011e838262000368565b5060066200012d828262000368565b50505050505062000434565b634e487b7160e01b600052604160045260246000fd5b600082601f8301126200016157600080fd5b81516001600160401b03808211156200017e576200017e62000139565b604051601f8301601f19908116603f01168101908282118183101715620001a957620001a962000139565b81604052838152602092508683858801011115620001c657600080fd5b600091505b83821015620001ea5785820183015181830184015290820190620001cb565b600093810190920192909252949350505050565b600080600080600060a086880312156200021757600080fd5b85516001600160401b03808211156200022f57600080fd5b6200023d89838a016200014f565b965060208801519150808211156200025457600080fd5b6200026289838a016200014f565b604089015190965091506001600160a01b03821682146200028257600080fd5b6060880151919450808211156200029857600080fd5b620002a689838a016200014f565b93506080880151915080821115620002bd57600080fd5b50620002cc888289016200014f565b9150509295509295909350565b600181811c90821680620002ee57607f821691505b6020821081036200030f57634e487b7160e01b600052602260045260246000fd5b50919050565b601f8211156200036357600081815260208120601f850160051c810160208610156200033e5750805b601f850160051c820191505b818110156200035f578281556001016200034a565b5050505b505050565b81516001600160401b0381111562000384576200038462000139565b6200039c81620003958454620002d9565b8462000315565b602080601f831160018114620003d45760008415620003bb5750858301515b600019600386901b1c1916600185901b1785556200035f565b600085815260208120601f198616915b828110156200040557888601518255948401946001909101908401620003e4565b5085821015620004245787850151600019600388901b60f8161c191681555b5050505050600190811b01905550565b61412480620004446000396000f3fe608060405234801561001057600080fd5b50600436106102a05760003560e01c80638ec68a6711610167578063cfaaa266116100ce578063ed0a9f2611610087578063ed0a9f2614610617578063ef99bb2c1461062a578063f55a40cc1461063d578063f66ec86414610650578063fa3bef6f14610658578063ff6fd7df1461066057600080fd5b8063cfaaa266146105ce578063d522b0f0146105e1578063d9466897146105e9578063e5b92207146105fc578063eb3f864b14610607578063ecbb93681461060f57600080fd5b8063bae9904811610120578063bae9904814610552578063be1d576714610565578063c0c53b8b14610578578063c202aebc1461058b578063c2e8b10e1461059e578063c51ee1bc146105c657600080fd5b80638ec68a67146104e85780639132f72b146104fb5780639bc350a114610508578063a335f1571461051b578063afa4a4aa1461052e578063b6326a231461054157600080fd5b8063510a8ea21161020b5780636e8dff13116101c45780636e8dff131461047c578063779c7ac31461048f57806379cfae26146104a25780637a029e34146104b557806380833f8c146104bd57806389fb165a146104d157600080fd5b8063510a8ea2146103dc5780635860c6d1146104085780635a5e1cea1461041b5780635a8ce65d1461042357806362691a0b1461043b57806367ce7c761461045b57600080fd5b80632bab59bc1161025d5780632bab59bc146103335780632ce042b0146103465780632e0308fb1461035b5780633694758f1461036e5780633e0881a9146103aa57806348adfbdb146103b757600080fd5b80630b8b2ece146102a557806310a0ebb0146102ce57806311b157c8146102e3578063137d66a0146102f85780631943d66d1461030d5780632b385ab614610320575b600080fd5b6102b86102b3366004613274565b610673565b6040516102c591906132e8565b60405180910390f35b6102d661079f565b6040516102c5919061334a565b6102f66102f136600461347c565b610878565b005b610300610990565b6040516102c591906134b8565b6102f661031b366004613516565b610a22565b61030061032e366004613274565b610d5b565b6102f6610341366004613557565b610e48565b61034e611026565b6040516102c59190613660565b610300610369366004613274565b611087565b61039a61037c366004613274565b6001600160a01b03166000908152601c602052604090205460ff1690565b60405190151581526020016102c5565b60075461039a9060ff1681565b6017546001600160a01b03165b6040516001600160a01b0390911681526020016102c5565b61039a6103ea366004613274565b6001600160a01b031660009081526012602052604090205460ff1690565b6102f66104163660046136ee565b6110ef565b6102f661128e565b6007546103c49061010090046001600160a01b031681565b61044e6104493660046136ee565b61137b565b6040516102c59190613723565b61046e61046936600461347c565b611592565b6040519081526020016102c5565b6102f661048a36600461379b565b6115bd565b6005546103c4906001600160a01b031681565b6102f66104b0366004613557565b61176b565b61030061193c565b60055461039a90600160a01b900460ff1681565b6102f66007805460ff19811660ff90911615179055565b6102f66104f6366004613516565b6119ca565b60095461039a9060ff1681565b6102f661051636600461347c565b611cf6565b6102f6610529366004613516565b61200b565b6102f661053c366004613803565b612296565b6018546001600160a01b03166103c4565b6102f6610560366004613274565b612523565b6102f661057336600461347c565b6125bc565b6102f661058636600461389c565b6126b8565b6102b8610599366004613274565b612732565b6105b16105ac366004613274565b612853565b604080519283526020830191909152016102c5565b6102b86128b3565b6102f66105dc366004613274565b612983565b6103006129e5565b6102f66105f73660046136ee565b6129f4565b60075460ff1661039a565b610300612b93565b610300612ba2565b6102f66106253660046138e7565b612baf565b6102d6610638366004613516565b612cba565b6004546103c4906001600160a01b031681565b61034e612f11565b610300612f71565b6102f661066e366004613516565b612f7e565b6001600160a01b03811660009081526012602052604081205460609160ff909116151590036106b557604051635d25499160e11b815260040160405180910390fd5b6001600160a01b038216600090815260136020908152604080832080548251818502810185019093528083529193909284015b8282101561079457838290600052602060002001805461070790613925565b80601f016020809104026020016040519081016040528092919081815260200182805461073390613925565b80156107805780601f1061075557610100808354040283529160200191610780565b820191906000526020600020905b81548152906001019060200180831161076357829003601f168201915b5050505050815260200190600101906106e8565b505050509050919050565b60606015805480602002602001604051908101604052809291908181526020016000905b8282101561086f5783829060005260206000200180546107e290613925565b80601f016020809104026020016040519081016040528092919081815260200182805461080e90613925565b801561085b5780601f106108305761010080835404028352916020019161085b565b820191906000526020600020905b81548152906001019060200180831161083e57829003601f168201915b5050505050815260200190600101906107c3565b50505050905090565b6017546001600160a01b031633146108ab5760405162461bcd60e51b81526004016108a29061395f565b60405180910390fd5b600554600160a01b900460ff16156109055760405162461bcd60e51b815260206004820152601a60248201527f636572746966696361746520616c72656164792069737375656400000000000060448201526064016108a2565b600554604051630f5bfed760e41b81526001600160a01b039091169063f5bfed709061093890600e908590600401613986565b600060405180830381600087803b15801561095257600080fd5b505af1158015610966573d6000803e3d6000fd5b5050505080600290816109799190613a52565b50506005805460ff60a01b1916600160a01b179055565b60606001805461099f90613925565b80601f01602080910402602001604051908101604052809291908181526020018280546109cb90613925565b8015610a185780601f106109ed57610100808354040283529160200191610a18565b820191906000526020600020905b8154815290600101906020018083116109fb57829003601f168201915b5050505050905090565b6017546001600160a01b03163314610a4c5760405162461bcd60e51b81526004016108a29061395f565b8060005b81811015610cbc57601c6000858584818110610a6e57610a6e613b0b565b9050602002810190610a809190613b21565b610a8e906020810190613274565b6001600160a01b0316815260208101919091526040016000205460ff16158015610b08575060126000858584818110610ac957610ac9613b0b565b9050602002810190610adb9190613b21565b610ae9906020810190613274565b6001600160a01b0316815260208101919091526040016000205460ff16155b15610caa57838382818110610b1f57610b1f613b0b565b9050602002810190610b319190613b21565b601d6000868685818110610b4757610b47613b0b565b9050602002810190610b599190613b21565b610b67906020810190613274565b6001600160a01b031681526020810191909152604001600020610b8a8282613bfb565b9050506001601c6000868685818110610ba557610ba5613b0b565b9050602002810190610bb79190613b21565b610bc5906020810190613274565b6001600160a01b0316815260208101919091526040016000908120805460ff19169215159290921790915560195490601a90868685818110610c0957610c09613b0b565b9050602002810190610c1b9190613b21565b610c29906020810190613274565b6001600160a01b031681526020810191909152604001600020556019848483818110610c5757610c57613b0b565b9050602002810190610c699190613b21565b610c77906020810190613274565b81546001810183556000928352602090922090910180546001600160a01b0319166001600160a01b039092169190911790555b80610cb481613d26565b915050610a50565b5060035460405163644516b560e11b81526001600160a01b039091169063c88a2d6a90610cef9086908690600401613d68565b600060405180830381600087803b158015610d0957600080fd5b505af1158015610d1d573d6000803e3d6000fd5b50506040518481527fe5f4f31d0d2f5b03accfa085fa5f9233a3f794feb8c052c642c3ba2c04485d74925060200190505b60405180910390a1505050565b6001600160a01b0381166000908152601c602052604081205460609160ff90911615159003610d9d57604051633fde509760e11b815260040160405180910390fd5b6001600160a01b0382166000908152601d602052604090206001018054610dc390613925565b80601f0160208091040260200160405190810160405280929190818152602001828054610def90613925565b8015610e3c5780601f10610e1157610100808354040283529160200191610e3c565b820191906000526020600020905b815481529060010190602001808311610e1f57829003601f168201915b50505050509050919050565b3360009081526012602052604090205460ff16151560011480610e7557506017546001600160a01b031633145b80610e945750336000908152601c602052604090205460ff1615156001145b610eb05760405162461bcd60e51b81526004016108a290613e39565b805160005b81811015610fe757600a6000848381518110610ed357610ed3613b0b565b602090810291909101810151516001600160a01b031682528101919091526040016000205460ff161515600103610fd557828181518110610f1657610f16613b0b565b6020026020010151600f6000858481518110610f3457610f34613b0b565b602090810291909101810151516001600160a01b039081168352828201939093526040909101600020835181546001600160a01b03191693169290921782558201516001820190610f859082613a52565b509050506000600a6000858481518110610fa157610fa1613b0b565b602090810291909101810151516001600160a01b03168252810191909152604001600020805460ff19169115159190911790555b80610fdf81613d26565b915050610eb5565b507f62c7928d28a5e0f48fed82e7c284688d35ff999217eff142ec7643ddfc6784b2825160405161101a91815260200190565b60405180910390a15050565b60606019805480602002602001604051908101604052809291908181526020018280548015610a1857602002820191906000526020600020905b81546001600160a01b03168152600190910190602001808311611060575050505050905090565b6001600160a01b03811660009081526012602052604081205460609160ff909116151590036110c957604051635d25499160e11b815260040160405180910390fd5b6001600160a01b0382166000908152600f602052604090206001018054610dc390613925565b6018546001600160a01b031633146111195760405162461bcd60e51b81526004016108a290613e7d565b600d828260405161112b929190613eac565b9081526040519081900360200190205460ff1615156000036111605760405163fe19a0c360e01b815260040160405180910390fd5b600c8282604051611172929190613eac565b9081526040519081900360200190206005015460ff1615156001036111d95760405162461bcd60e51b815260206004820152601760248201527f417474656e64616e636520616c7265616479206f70656e00000000000000000060448201526064016108a2565b600c82826040516111eb929190613eac565b90815260405190819003602001902054336001600160a01b039091161461122557604051632e09441160e11b815260040160405180910390fd5b6001600c8383604051611239929190613eac565b908152604051908190036020018120600501805492151560ff19909316929092179091557f5946206744873241a006b31d09442f5db0ab1fb57c367549853b8f8a4e11ea5e9061101a90849084903390613ebc565b3360009081526012602052604090205460ff161515600114806112bb57506017546001600160a01b031633145b806112da5750336000908152601c602052604090205460ff1615156001145b6112f65760405162461bcd60e51b81526004016108a290613e39565b336000908152600a602052604090205460ff16151560010361132b57604051630166911d60e51b815260040160405180910390fd5b336000818152600a6020908152604091829020805460ff1916600117905590519182527f5cbbb01dff1ae8d3860226f3f5048574c8e33cbb11c18a75bd82c6bd9a580099910160405180910390a1565b6113bf6040518060c0016040528060006001600160a01b03168152602001606081526020016060815260200160008152602001600081526020016000151581525090565b600d83836040516113d1929190613eac565b9081526040519081900360200190205460ff16151560000361140657604051632cc4728b60e01b815260040160405180910390fd5b600c8383604051611418929190613eac565b90815260408051918290036020908101832060c0840190925281546001600160a01b031683526001820180549184019161145190613925565b80601f016020809104026020016040519081016040528092919081815260200182805461147d90613925565b80156114ca5780601f1061149f576101008083540402835291602001916114ca565b820191906000526020600020905b8154815290600101906020018083116114ad57829003601f168201915b505050505081526020016002820180546114e390613925565b80601f016020809104026020016040519081016040528092919081815260200182805461150f90613925565b801561155c5780601f106115315761010080835404028352916020019161155c565b820191906000526020600020905b81548152906001019060200180831161153f57829003601f168201915b5050509183525050600382015460208201526004820154604082015260059091015460ff16151560609091015290505b92915050565b6000600c826040516115a49190613ee8565b9081526020016040518091039020600401549050919050565b600c836040516115cd9190613ee8565b90815260405190819003602001902054336001600160a01b039091161461160757604051632e09441160e11b815260040160405180910390fd5b600c836040516116179190613ee8565b908152602001604051809103902060030154600014611649576040516362a9293960e11b815260040160405180910390fd5b6000600c8460405161165b9190613ee8565b9081526020016040518091039020600101805461167790613925565b80601f01602080910402602001604051908101604052809291908181526020018280546116a390613925565b80156116f05780601f106116c5576101008083540402835291602001916116f0565b820191906000526020600020905b8154815290600101906020018083116116d357829003601f168201915b505050505090508282600c866040516117099190613ee8565b90815260200160405180910390206001019182611727929190613b41565b507fc001c5e05a1ae9c4f9b6fec4fa6e234cbf927fa8071a4945eeae975acebc564a8482858560405161175d9493929190613efa565b60405180910390a150505050565b3360009081526012602052604090205460ff1615156001148061179857506017546001600160a01b031633145b806117b75750336000908152601c602052604090205460ff1615156001145b6117d35760405162461bcd60e51b81526004016108a290613e39565b805160005b8181101561190a57600a60008483815181106117f6576117f6613b0b565b602090810291909101810151516001600160a01b031682528101919091526040016000205460ff1615156001036118f85782818151811061183957611839613b0b565b6020026020010151601d600085848151811061185757611857613b0b565b602090810291909101810151516001600160a01b039081168352828201939093526040909101600020835181546001600160a01b031916931692909217825582015160018201906118a89082613a52565b509050506000600a60008584815181106118c4576118c4613b0b565b602090810291909101810151516001600160a01b03168252810191909152604001600020805460ff19169115159190911790555b8061190281613d26565b9150506117d8565b507edd9bdba0cf8daa3e90d301d829f2215c0191589f1fbfd3f95d775539684d2c825160405161101a91815260200190565b6002805461194990613925565b80601f016020809104026020016040519081016040528092919081815260200182805461197590613925565b80156119c25780601f10611997576101008083540402835291602001916119c2565b820191906000526020600020905b8154815290600101906020018083116119a557829003601f168201915b505050505081565b6017546001600160a01b031633146119f45760405162461bcd60e51b81526004016108a29061395f565b8060005b81811015611c605760126000858584818110611a1657611a16613b0b565b9050602002810190611a289190613b21565b611a36906020810190613274565b6001600160a01b0316815260208101919091526040016000205460ff16158015611ab05750601c6000858584818110611a7157611a71613b0b565b9050602002810190611a839190613b21565b611a91906020810190613274565b6001600160a01b0316815260208101919091526040016000205460ff16155b15611c4e57838382818110611ac757611ac7613b0b565b9050602002810190611ad99190613b21565b600f6000868685818110611aef57611aef613b0b565b9050602002810190611b019190613b21565b611b0f906020810190613274565b6001600160a01b031681526020810191909152604001600020611b328282613bfb565b5050600e5460106000868685818110611b4d57611b4d613b0b565b9050602002810190611b5f9190613b21565b611b6d906020810190613274565b6001600160a01b03168152602081019190915260400160002055600e848483818110611b9b57611b9b613b0b565b9050602002810190611bad9190613b21565b611bbb906020810190613274565b81546001808201845560009384526020842090910180546001600160a01b0319166001600160a01b03939093169290921790915590601290868685818110611c0557611c05613b0b565b9050602002810190611c179190613b21565b611c25906020810190613274565b6001600160a01b031681526020810191909152604001600020805460ff19169115159190911790555b80611c5881613d26565b9150506119f8565b5060035460405163644516b560e11b81526001600160a01b039091169063c88a2d6a90611c939086908690600401613d68565b600060405180830381600087803b158015611cad57600080fd5b505af1158015611cc1573d6000803e3d6000fd5b50506040518481527f50a5fb5ce75a399b2d186f375ea49bc7dfaea9a19ebed93c46385eb5749afd6792506020019050610d4e565b3360009081526012602052604090205460ff161515600114611d505760405162461bcd60e51b81526020600482015260136024820152721393d508104815905312510814d51551115395606a1b60448201526064016108a2565b600d81604051611d609190613ee8565b9081526040519081900360200190205460ff161515600003611d955760405163fe19a0c360e01b815260040160405180910390fd5b600c81604051611da59190613ee8565b9081526040519081900360200190206005015460ff161515600003611ddd5760405163d59c725960e01b815260040160405180910390fd5b33600090815260146020526040908190209051611dfb908390613ee8565b9081526040519081900360200190205460ff161515600103611e30576040516370ec74d160e11b815260040160405180910390fd5b600c81604051611e409190613ee8565b908152602001604051809103902060030154600003611e7e5742600c82604051611e6a9190613ee8565b908152604051908190036020019020600301555b3360009081526014602052604090819020905160019190611ea0908490613ee8565b9081526040805160209281900383019020805460ff19169315159390931790925533600090815260119091522054611ed9906001613f3f565b33600090815260116020526040908190209190915551600c90611efd908390613ee8565b9081526020016040518091039020600401546001611f1b9190613f3f565b600c82604051611f2b9190613ee8565b908152604080516020928190038301902060040192909255336000908152601382529182208054600181018255908352912001611f688282613a52565b506004805460405163775ed63d60e01b81526001600160a01b039091169163775ed63d91611f9d913391869160019101613f52565b600060405180830381600087803b158015611fb757600080fd5b505af1158015611fcb573d6000803e3d6000fd5b505050507f5177338c280548e3d70f2382e27ae921a415f2bbcf11dc2cbf0586250b68d3a28133604051612000929190613f86565b60405180910390a150565b6017546001600160a01b031633146120355760405162461bcd60e51b81526004016108a29061395f565b8060005b8181101561220057601d600085858481811061205757612057613b0b565b905060200201602081019061206c9190613274565b6001600160a01b031681526020810191909152604001600090812080546001600160a01b0319168155906120a36001830182613209565b5050601980546120b590600190613fb0565b815481106120c5576120c5613b0b565b60009182526020822001546001600160a01b031690601990601a908787868181106120f2576120f2613b0b565b90506020020160208101906121079190613274565b6001600160a01b03166001600160a01b03168152602001908152602001600020548154811061213857612138613b0b565b9060005260206000200160006101000a8154816001600160a01b0302191690836001600160a01b03160217905550601980548061217757612177613fc3565b600082815260208120820160001990810180546001600160a01b0319169055909101909155601c818686858181106121b1576121b1613b0b565b90506020020160208101906121c69190613274565b6001600160a01b031681526020810191909152604001600020805460ff1916911515919091179055806121f881613d26565b915050612039565b506003546040516305f203d960e01b81526001600160a01b03909116906305f203d9906122339086908690600401613fd9565b600060405180830381600087803b15801561224d57600080fd5b505af1158015612261573d6000803e3d6000fd5b50506040518481527f910bc96e6919a33ebcff47718bf1ea49fe2f2b3a375702f98a75e8d97b3b402e92506020019050610d4e565b6018546001600160a01b031633146122c05760405162461bcd60e51b81526004016108a290613e7d565b600d86866040516122d2929190613eac565b9081526040519081900360200190205460ff16151560010361230757604051632f40f73560e21b815260040160405180910390fd5b6001600d878760405161231b929190613eac565b908152604051908190036020019020805491151560ff19909216919091179055600b80546001810182556000919091527f0175b7a638427703f0dbe7bb9bbf987a2551717b34e79f33b5b1008d1fa01db901612378868883613b41565b508383600c888860405161238d929190613eac565b908152602001604051809103902060020191826123ab929190613b41565b508181600c88886040516123c0929190613eac565b908152602001604051809103902060010191826123de929190613b41565b5033600c87876040516123f2929190613eac565b908152604080516020928190038301902080546001600160a01b0319166001600160a01b039490941693909317909255336000908152601b82529182208054600181018255908352912001612448868883613b41565b5060048054604051631f0c687b60e01b81526001600160a01b0390911691631f0c687b9161247e918a918a918a918a9101614027565b600060405180830381600087803b15801561249857600080fd5b505af11580156124ac573d6000803e3d6000fd5b50506040513392506124c2915086908690613eac565b604051809103902087876040516124da929190613eac565b60405180910390207fc7d832b02a0712637b5e0a5f3fc9926df64dc4fbea1481e5f10b2999971ac441858560405161251392919061404e565b60405180910390a4505050505050565b6018546001600160a01b0316331480159061254957506017546001600160a01b03163314155b1561256757604051632e09441160e11b815260040160405180910390fd5b601880546001600160a01b0319166001600160a01b0383169081179091556040805133815260208101929092527f3a9b8ac65cf75985be9cace564df0616f96365c8a712d4fcb0d4dd0d3e6aadb79101612000565b6017546001600160a01b031633146125e65760405162461bcd60e51b81526004016108a29061395f565b60095460ff161561262f5760405162461bcd60e51b81526020600482015260136024820152721cdc1bdac8185b1c9958591e481b5a5b9d1959606a1b60448201526064016108a2565b600754604051630f5bfed760e41b81526101009091046001600160a01b03169063f5bfed7090612666906019908590600401613986565b600060405180830381600087803b15801561268057600080fd5b505af1158015612694573d6000803e3d6000fd5b5050505080600890816126a79190613a52565b50506009805460ff19166001179055565b6003546001600160a01b031633146126e357604051632e09441160e11b815260040160405180910390fd5b600480546001600160a01b039485166001600160a01b031991821617909155600580549385169390911692909217909155600780549190921661010002610100600160a81b0319909116179055565b6001600160a01b0381166000908152601c602052604081205460609160ff9091161515900361277457604051633fde509760e11b815260040160405180910390fd5b6001600160a01b0382166000908152601b6020908152604080832080548251818502810185019093528083529193909284015b828210156107945783829060005260206000200180546127c690613925565b80601f01602080910402602001604051908101604052809291908181526020018280546127f290613925565b801561283f5780601f106128145761010080835404028352916020019161283f565b820191906000526020600020905b81548152906001019060200180831161282257829003601f168201915b5050505050815260200190600101906127a7565b6001600160a01b038116600090815260126020526040812054819060ff161515810361289257604051635d25499160e11b815260040160405180910390fd5b50506001600160a01b0316600090815260116020526040902054600b549091565b6060600b805480602002602001604051908101604052809291908181526020016000905b8282101561086f5783829060005260206000200180546128f690613925565b80601f016020809104026020016040519081016040528092919081815260200182805461292290613925565b801561296f5780601f106129445761010080835404028352916020019161296f565b820191906000526020600020905b81548152906001019060200180831161295257829003601f168201915b5050505050815260200190600101906128d7565b6017546001600160a01b031633146129ad5760405162461bcd60e51b81526004016108a29061395f565b6001600160a01b0381166129c3576129c3614062565b601780546001600160a01b0319166001600160a01b0392909216919091179055565b60606000805461099f90613925565b6018546001600160a01b03163314612a1e5760405162461bcd60e51b81526004016108a290613e7d565b600d8282604051612a30929190613eac565b9081526040519081900360200190205460ff161515600003612a655760405163fe19a0c360e01b815260040160405180910390fd5b600c8282604051612a77929190613eac565b9081526040519081900360200190206005015460ff161515600003612ade5760405162461bcd60e51b815260206004820152601960248201527f417474656e64616e636520616c726561647920636c6f7365640000000000000060448201526064016108a2565b600c8282604051612af0929190613eac565b90815260405190819003602001902054336001600160a01b0390911614612b2a57604051632e09441160e11b815260040160405180910390fd5b6000600c8383604051612b3e929190613eac565b908152604051908190036020018120600501805492151560ff19909316929092179091557f396a6bb7803226480a567b9c61e4f02e8d9344eedb46e09320167acfd7bea9ae9061101a90849084903390613ebc565b60606006805461099f90613925565b6006805461194990613925565b6018546001600160a01b03163314612bd95760405162461bcd60e51b81526004016108a290613e7d565b60008381526016602052604090205460ff1615612c2f5760405162461bcd60e51b8152602060048201526014602482015273151154d50812510810531491505116481554d15160621b60448201526064016108a2565b6000838152601660205260408120805460ff191660019081179091556015805491820181559091527f55f448fdea98c4d29eb340757ef0a66cd03dbb9538908a6a81d96026b71ec47501612c84828483613b41565b50604080518481523360208201527f33bf291d040049ab18c602f83625b2b97873ec3427b399966ca61f473405d1279101610d4e565b60606000826001600160401b03811115612cd657612cd661339f565b604051908082528060200260200182016040528015612d0957816020015b6060815260200190600190039081612cf45790505b509050606060005b84811015612f075781604051602001612d2a9190613ee8565b60405160208183030381529060405280519060200120600f6000888885818110612d5657612d56613b0b565b9050602002016020810190612d6b9190613274565b6001600160a01b03166001600160a01b03168152602001908152602001600020600101604051602001612d9e9190614078565b6040516020818303038152906040528051906020012003612e00576040518060400160405280600c81526020016b1553949151d254d51154915160a21b815250838281518110612df057612df0613b0b565b6020026020010181905250612ef5565b600f6000878784818110612e1657612e16613b0b565b9050602002016020810190612e2b9190613274565b6001600160a01b03166001600160a01b031681526020019081526020016000206001018054612e5990613925565b80601f0160208091040260200160405190810160405280929190818152602001828054612e8590613925565b8015612ed25780601f10612ea757610100808354040283529160200191612ed2565b820191906000526020600020905b815481529060010190602001808311612eb557829003601f168201915b5050505050838281518110612ee957612ee9613b0b565b60200260200101819052505b80612eff81613d26565b915050612d11565b5090949350505050565b6060600e805480602002602001604051908101604052809291908181526020018280548015610a18576020028201919060005260206000209081546001600160a01b03168152600190910190602001808311611060575050505050905090565b6008805461194990613925565b6017546001600160a01b03163314612fa85760405162461bcd60e51b81526004016108a29061395f565b8060005b8181101561317357600f6000858584818110612fca57612fca613b0b565b9050602002016020810190612fdf9190613274565b6001600160a01b031681526020810191909152604001600090812080546001600160a01b0319168155906130166001830182613209565b5050600e805461302890600190613fb0565b8154811061303857613038613b0b565b60009182526020822001546001600160a01b031690600e9060109087878681811061306557613065613b0b565b905060200201602081019061307a9190613274565b6001600160a01b03166001600160a01b0316815260200190815260200160002054815481106130ab576130ab613b0b565b9060005260206000200160006101000a8154816001600160a01b0302191690836001600160a01b03160217905550600e8054806130ea576130ea613fc3565b600082815260208120820160001990810180546001600160a01b031916905590910190915560128186868581811061312457613124613b0b565b90506020020160208101906131399190613274565b6001600160a01b031681526020810191909152604001600020805460ff19169115159190911790558061316b81613d26565b915050612fac565b506003546040516305f203d960e01b81526001600160a01b03909116906305f203d9906131a69086908690600401613fd9565b600060405180830381600087803b1580156131c057600080fd5b505af11580156131d4573d6000803e3d6000fd5b50506040518481527fbb55a6227ddd6bd5f81fa51357a83843ba2546310d2ca0a3f6a944e5f90e5fee92506020019050610d4e565b50805461321590613925565b6000825580601f10613225575050565b601f0160209004906000526020600020908101906132439190613246565b50565b5b8082111561325b5760008155600101613247565b5090565b6001600160a01b038116811461324357600080fd5b60006020828403121561328657600080fd5b81356132918161325f565b9392505050565b60005b838110156132b357818101518382015260200161329b565b50506000910152565b600081518084526132d4816020860160208601613298565b601f01601f19169290920160200192915050565b6000602080830181845280855180835260408601915060408160051b870101925083870160005b8281101561333d57603f1988860301845261332b8583516132bc565b9450928501929085019060010161330f565b5092979650505050505050565b6000602080830181845280855180835260408601915060408160051b870101925083870160005b8281101561333d57603f1988860301845261338d8583516132bc565b94509285019290850190600101613371565b634e487b7160e01b600052604160045260246000fd5b604080519081016001600160401b03811182821017156133d7576133d761339f565b60405290565b604051601f8201601f191681016001600160401b03811182821017156134055761340561339f565b604052919050565b600082601f83011261341e57600080fd5b81356001600160401b038111156134375761343761339f565b61344a601f8201601f19166020016133dd565b81815284602083860101111561345f57600080fd5b816020850160208301376000918101602001919091529392505050565b60006020828403121561348e57600080fd5b81356001600160401b038111156134a457600080fd5b6134b08482850161340d565b949350505050565b60208152600061329160208301846132bc565b60008083601f8401126134dd57600080fd5b5081356001600160401b038111156134f457600080fd5b6020830191508360208260051b850101111561350f57600080fd5b9250929050565b6000806020838503121561352957600080fd5b82356001600160401b0381111561353f57600080fd5b61354b858286016134cb565b90969095509350505050565b6000602080838503121561356a57600080fd5b82356001600160401b038082111561358157600080fd5b818501915085601f83011261359557600080fd5b8135818111156135a7576135a761339f565b8060051b6135b68582016133dd565b91825283810185019185810190898411156135d057600080fd5b86860192505b83831015613653578235858111156135ee5760008081fd5b86016040818c03601f19018113156136065760008081fd5b61360e6133b5565b8983013561361b8161325f565b81529082013590878211156136305760008081fd5b61363e8d8b8486010161340d565b818b01528452505091860191908601906135d6565b9998505050505050505050565b6020808252825182820181905260009190848201906040850190845b818110156136a15783516001600160a01b03168352928401929184019160010161367c565b50909695505050505050565b60008083601f8401126136bf57600080fd5b5081356001600160401b038111156136d657600080fd5b60208301915083602082850101111561350f57600080fd5b6000806020838503121561370157600080fd5b82356001600160401b0381111561371757600080fd5b61354b858286016136ad565b602080825282516001600160a01b03168282015282015160c0604083015260009061375160e08401826132bc565b90506040840151601f1984830301606085015261376e82826132bc565b91505060608401516080840152608084015160a084015260a0840151151560c08401528091505092915050565b6000806000604084860312156137b057600080fd5b83356001600160401b03808211156137c757600080fd5b6137d38783880161340d565b945060208601359150808211156137e957600080fd5b506137f6868287016136ad565b9497909650939450505050565b6000806000806000806060878903121561381c57600080fd5b86356001600160401b038082111561383357600080fd5b61383f8a838b016136ad565b9098509650602089013591508082111561385857600080fd5b6138648a838b016136ad565b9096509450604089013591508082111561387d57600080fd5b5061388a89828a016136ad565b979a9699509497509295939492505050565b6000806000606084860312156138b157600080fd5b83356138bc8161325f565b925060208401356138cc8161325f565b915060408401356138dc8161325f565b809150509250925092565b6000806000604084860312156138fc57600080fd5b8335925060208401356001600160401b0381111561391957600080fd5b6137f6868287016136ad565b600181811c9082168061393957607f821691505b60208210810361395957634e487b7160e01b600052602260045260246000fd5b50919050565b6020808252600d908201526c2727aa1026a7a222a920aa27a960991b604082015260600190565b6000604082016040835280855480835260608501915086600052602092508260002060005b828110156139d05781546001600160a01b0316845292840192600191820191016139ab565b505050838103828501526139e481866132bc565b9695505050505050565b601f821115613a3857600081815260208120601f850160051c81016020861015613a155750805b601f850160051c820191505b81811015613a3457828155600101613a21565b5050505b505050565b600019600383901b1c191660019190911b1790565b81516001600160401b03811115613a6b57613a6b61339f565b613a7f81613a798454613925565b846139ee565b602080601f831160018114613aae5760008415613a9c5750858301515b613aa68582613a3d565b865550613a34565b600085815260208120601f198616915b82811015613add57888601518255948401946001909101908401613abe565b5085821015613afb5787850151600019600388901b60f8161c191681555b5050505050600190811b01905550565b634e487b7160e01b600052603260045260246000fd5b60008235603e19833603018112613b3757600080fd5b9190910192915050565b6001600160401b03831115613b5857613b5861339f565b613b6c83613b668354613925565b836139ee565b6000601f841160018114613b9a5760008515613b885750838201355b613b928682613a3d565b845550613bf4565b600083815260209020601f19861690835b82811015613bcb5786850135825560209485019460019092019101613bab565b5086821015613be85760001960f88860031b161c19848701351681555b505060018560011b0183555b5050505050565b8135613c068161325f565b81546001600160a01b0319166001600160a01b0391909116178155600181810160208481013536869003601e19018112613c3f57600080fd5b850180356001600160401b03811115613c5757600080fd5b8036038383011315613c6857600080fd5b613c7c81613c768654613925565b866139ee565b6000601f821160018114613cac5760008315613c9a57508382018501355b613ca48482613a3d565b875550613d05565b600086815260209020601f19841690835b82811015613cdc57868501880135825593870193908901908701613cbd565b5084821015613cfb5760001960f88660031b161c198785880101351681555b50508683881b0186555b505050505050505050565b634e487b7160e01b600052601160045260246000fd5b600060018201613d3857613d38613d10565b5060010190565b81835281816020850137506000828201602090810191909152601f909101601f19169091010190565b60208082528181018390526000906040808401600586901b8501820187855b88811015613e2b57878303603f190184528135368b9003603e19018112613dad57600080fd5b8a018035613dba8161325f565b6001600160a01b031684528087013536829003601e19018112613ddc57600080fd5b0186810190356001600160401b03811115613df657600080fd5b803603821315613e0557600080fd5b8688860152613e178786018284613d3f565b958801959450505090850190600101613d87565b509098975050505050505050565b60208082526024908201527f4e4f5420414c4c4f57454420544f20524551554553542041204e414d45204348604082015263414e474560e01b606082015260800190565b6020808252601590820152744e4f54204d4f44455241544f52204f4e204455545960581b604082015260600190565b8183823760009101908152919050565b604081526000613ed0604083018587613d3f565b905060018060a01b0383166020830152949350505050565b60008251613b37818460208701613298565b606081526000613f0d60608301876132bc565b8281036020840152613f1f81876132bc565b90508281036040840152613f34818587613d3f565b979650505050505050565b8082018082111561158c5761158c613d10565b6001600160a01b0384168152606060208201819052600090613f76908301856132bc565b9050826040830152949350505050565b604081526000613f9960408301856132bc565b905060018060a01b03831660208301529392505050565b8181038181111561158c5761158c613d10565b634e487b7160e01b600052603160045260246000fd5b60208082528181018390526000908460408401835b8681101561401c5782356140018161325f565b6001600160a01b031682529183019190830190600101613fee565b509695505050505050565b60408152600061403b604083018688613d3f565b8281036020840152613f34818587613d3f565b6020815260006134b0602083018486613d3f565b634e487b7160e01b600052600160045260246000fd5b600080835461408681613925565b6001828116801561409e57600181146140b3576140e2565b60ff19841687528215158302870194506140e2565b8760005260208060002060005b858110156140d95781548a8201529084019082016140c0565b50505082870194505b5092969550505050505056fea26469706673582212209fd32146ae34700842f52be19c8ec208312d2e11029e4e5f94384a00b9aa9b2864736f6c63430008140033a2646970667358221220d5552ee9c1dc4a08c84abeea3f30a14a5c344aea30642ec6a47333a7204fda6164736f6c63430008140033",
  "devdoc": {
    "kind": "dev",
    "methods": {},
    "version": 1
  },
  "userdoc": {
    "kind": "user",
    "methods": {},
    "version": 1
  },
  "storageLayout": {
    "storage": [
      {
        "astId": 1807,
        "contract": "contracts/organizations/organisationFactory.sol:EdumateFactory",
        "label": "Admin",
        "offset": 0,
        "slot": "0",
        "type": "t_address"
      },
      {
        "astId": 1809,
        "contract": "contracts/organizations/organisationFactory.sol:EdumateFactory",
        "label": "organisationAdmin",
        "offset": 0,
        "slot": "1",
        "type": "t_address"
      },
      {
        "astId": 1811,
        "contract": "contracts/organizations/organisationFactory.sol:EdumateFactory",
        "label": "certificateFactory",
        "offset": 0,
        "slot": "2",
        "type": "t_address"
      },
      {
        "astId": 1814,
        "contract": "contracts/organizations/organisationFactory.sol:EdumateFactory",
        "label": "Organisations",
        "offset": 0,
        "slot": "3",
        "type": "t_array(t_address)dyn_storage"
      },
      {
        "astId": 1818,
        "contract": "contracts/organizations/organisationFactory.sol:EdumateFactory",
        "label": "validOrganisation",
        "offset": 0,
        "slot": "4",
        "type": "t_mapping(t_address,t_bool)"
      },
      {
        "astId": 1824,
        "contract": "contracts/organizations/organisationFactory.sol:EdumateFactory",
        "label": "studentOrganisationIndex",
        "offset": 0,
        "slot": "5",
        "type": "t_mapping(t_address,t_mapping(t_address,t_uint256))"
      },
      {
        "astId": 1829,
        "contract": "contracts/organizations/organisationFactory.sol:EdumateFactory",
        "label": "memberOrganisations",
        "offset": 0,
        "slot": "6",
        "type": "t_mapping(t_address,t_array(t_address)dyn_storage)"
      },
      {
        "astId": 1833,
        "contract": "contracts/organizations/organisationFactory.sol:EdumateFactory",
        "label": "uniqueStudent",
        "offset": 0,
        "slot": "7",
        "type": "t_mapping(t_address,t_bool)"
      },
      {
        "astId": 1835,
        "contract": "contracts/organizations/organisationFactory.sol:EdumateFactory",
        "label": "totalUsers",
        "offset": 0,
        "slot": "8",
        "type": "t_uint256"
      }
    ],
    "types": {
      "t_address": {
        "encoding": "inplace",
        "label": "address",
        "numberOfBytes": "20"
      },
      "t_array(t_address)dyn_storage": {
        "base": "t_address",
        "encoding": "dynamic_array",
        "label": "address[]",
        "numberOfBytes": "32"
      },
      "t_bool": {
        "encoding": "inplace",
        "label": "bool",
        "numberOfBytes": "1"
      },
      "t_mapping(t_address,t_array(t_address)dyn_storage)": {
        "encoding": "mapping",
        "key": "t_address",
        "label": "mapping(address => address[])",
        "numberOfBytes": "32",
        "value": "t_array(t_address)dyn_storage"
      },
      "t_mapping(t_address,t_bool)": {
        "encoding": "mapping",
        "key": "t_address",
        "label": "mapping(address => bool)",
        "numberOfBytes": "32",
        "value": "t_bool"
      },
      "t_mapping(t_address,t_mapping(t_address,t_uint256))": {
        "encoding": "mapping",
        "key": "t_address",
        "label": "mapping(address => mapping(address => uint256))",
        "numberOfBytes": "32",
        "value": "t_mapping(t_address,t_uint256)"
      },
      "t_mapping(t_address,t_uint256)": {
        "encoding": "mapping",
        "key": "t_address",
        "label": "mapping(address => uint256)",
        "numberOfBytes": "32",
        "value": "t_uint256"
      },
      "t_uint256": {
        "encoding": "inplace",
        "label": "uint256",
        "numberOfBytes": "32"
      }
    }
  }
}